:020000020000FC
:100000000C94FE2018951895189518951895189524
:100010001895189518951895189518951895189578
:100020001895189518951895189518951895189568
:100030001895189518951895189518950C94371EBD
:1000400018951895189518950C949D1C0C94D41C13
:100050001895189518951895189518951895189538
:100060001895189518951895189518951895189528
:1000700018951895189518950C947C1D0C94B41D22
:100080000C94F31D1895189518951895D9DA202019
:100090002020202020202020202020202020202060
:1000A0002020202020202020202020202020202050
:1000B000202020202020202020202020A2B5202029
:1000C00020202020202020202020202041A042A1EC
:1000D000E045A3A4A5A64BA74D484FA8504354A95B
:1000E000AA58E1ABACE2ADAE62AFB0B161B2B3B4AD
:1000F000E365B6B7B8B9BABBBCBD6FBE7063BF79B4
:10010000E478E5C0C1E6C2C3C4C5C6C70E94B32136
:100110002C97802FBE01EEE1F4E430E08B014CE03F
:1001200050E00E949B218D8327E030E08E010E94E9
:10013000F7010F83A0E0B0E0AB3000E0B00774F44B
:10014000FE01EA0FFB1F00810E94051DFE01EA0F60
:10015000FB1F00810E940A1E1196EECF2C96E4E050
:100160000C94C4210E94B3212C97902F812FBE01A3
:10017000EAE2F4E430E08B014CE050E00E949B2185
:100180009D838E8327E030E08E010E94F7010F836C
:10019000A0E0B0E0AB3000E0B00774F4FE01EA0F7D
:1001A000FB1F00810E94051DFE01EA0FFB1F00815D
:1001B0000E940A1E1196EECF2C96E4E00C94C42106
:1001C0000E94B3212C97802FBE01E6E3F4E430E0D7
:1001D0008B014CE050E00E949B218D8327E030E0B2
:1001E0008E010E94F7010F83A0E0B0E0AB3000E089
:1001F000B00774F4FE01EA0FFB1F00810E94051D89
:10020000FE01EA0FFB1F00810E940A1E1196EECF2D
:100210002C96E4E00C94C4210091780E0F3F39F441
:1002200000E010E00093E6041093E7040895E6EE82
:10023000F4E0008111810F5F1F4F00831183089547
:100240009A938A930091780E002309F065C080E0AC
:100250000FB7902FF8940091E6041091E704083E40
:1002600023E0120740F000E010E00093E604109352
:10027000E70481E048C00091FE040F3F29F4EDEE51
:10028000F4E00081016000830091FF040F3F29F436
:10029000EDEEF4E0008102600083009100050F3F65
:1002A00029F4EDEEF4E00081046000830091010583
:1002B0000F3F29F4EDEEF4E0008108600083009127
:1002C00002050F3F29F4EDEEF4E0008100610083A8
:1002D000009103050F3F29F4EDEEF4E00081006288
:1002E0000083009104050F3F29F4EDEEF4E0008156
:1002F00000640083009105050F3F29F4EDEEF4E062
:100300000081006800839FBF882331F00091ED04D5
:10031000FDDE00E00093ED048991999108958A93A0
:100320000091F10D0F3F39F500E00093F10D0FB78B
:10033000802FF89400E010E00E940F02F801EA5FBD
:10034000FA4F00811091E804102B1093E8048FBF3E
:100350000091780E0F3F29F40091EB040395009370
:10036000EB040091EB04053030F000E00093EB0467
:1003700001E00093E90400917F0E0F3F69F400E073
:1003800000937F0E01E00093EA040091EB0401303A
:1003900018F001E00093E9040091E904013080F0D5
:1003A00000E00093E9041091E8040091EC04DADE27
:1003B00000E00093E8040091EC0403950093EC0442
:1003C0000091EA04013060F000E00093EA0400913B
:1003D000EC04F6DE00E00093EC0400E00093EB0494
:1003E0008991089519DF08952BDF99DF08950E9400
:1003F000B321D8010FEF80E090E08217930764F4F7
:1004000010E04C9150E004271527F801E052FE4F10
:10041000008111960196F1CFE4E00C94C42198017B
:100420004091160D5091170D420F531F8A010F7FF7
:1004300017700895E6E1FDE0008111810F5F1F4F05
:1004400000831183E6E1FDE0008111810F7F1770C9
:100450000083118308950E94B4210091D80D0023D8
:1004600071F40091FE040F3F49F40FEF0093D80D93
:1004700000E010E00093D60D1093D70D3DC0009121
:10048000FE040F3F49F4E6EDFDE0008111810F5FAE
:100490001F4F0083118330C000E00093D80D0091FE
:1004A000780E0F3F49F50091D60D1091D70D169596
:1004B00007950093D90D1093DA0D0091B30D1091AB
:1004C000B40D2091D90D3091DA0D021B130BC80128
:1004D000A091D8044091D80450E08C010E942C21B6
:1004E000F801E75CF14FA0838C0199DFF801EA5F26
:1004F000FA4F008101600083E3E00C94C5218599E7
:1005000002C001E0089500E00895849902C001E06E
:10051000089500E00895B79902C001E0089500E051
:100520000895B69902C001E0089500E00895B599D4
:1005300002C001E0089500E00895B49902C001E00E
:10054000089500E0089500E0089500E00895D7DFE1
:100550000023E1F40091EE04013028F00091EE0454
:100560000A950093EE040091EE04002351F50091EA
:10057000F604002331F10091EE04002311F500E0B0
:100580000093F60400E00093FE041BC00091EE040B
:100590001091E002011728F40091EE0403950093F6
:1005A000EE040091EE041091E002011751F4009165
:1005B000F6040F3F31F00FEF0093F6040FEF0093B6
:1005C000FE04A3DF0023E1F40091EF04013028F0E2
:1005D0000091EF040A950093EF040091EF040023CB
:1005E00051F50091F704002331F10091EF0400234D
:1005F00011F500E00093F70400E00093FF041BC036
:100600000091EF041091E102011728F40091EF042A
:1006100003950093EF040091EF041091E10201179C
:1006200051F40091F7040F3F31F00FEF0093F704FE
:100630000FEF0093FF046FDF0023E1F40091F0045B
:10064000013028F00091F0040A950093F004009125
:10065000F004002351F50091F804002331F10091DA
:10066000F004002311F500E00093F80400E000938B
:1006700000051BC00091F0041091E202011728F45C
:100680000091F00403950093F0040091F0041091A0
:10069000E202011751F40091F8040F3F31F00FEF1F
:1006A0000093F8040FEF009300053BDF0023E1F413
:1006B0000091F104013028F00091F1040A950093B3
:1006C000F1040091F104002351F50091F904002395
:1006D00031F10091F104002311F500E00093F904D9
:1006E00000E0009301051BC00091F1041091E302AA
:1006F000011728F40091F10403950093F10400918F
:10070000F1041091E302011751F40091F9040F3F35
:1007100031F00FEF0093F9040FEF0093010507DFAD
:100720000023E1F40091F204013028F00091F2047A
:100730000A950093F2040091F204002351F5009110
:10074000FA04002331F10091F204002311F500E0D6
:100750000093FA0400E0009302051BC00091F2042C
:100760001091E402011728F40091F204039500931C
:10077000F2040091F2041091E402011751F4009187
:10078000FA040F3F31F00FEF0093FA040FEF0093DC
:100790000205D3DE0023E1F40091F304013028F0D8
:1007A0000091F3040A950093F3040091F3040023ED
:1007B00051F50091FB04002331F10091F304002373
:1007C00011F500E00093FB0400E0009303051BC05B
:1007D0000091F3041091E502011728F40091F3044D
:1007E00003950093F3040091F3041091E5020117BF
:1007F00051F40091FB040F3F31F00FEF0093FB0425
:100800000FEF009303059FDE0023E1F40091F40451
:10081000013028F00091F4040A950093F40400914B
:10082000F404002351F50091FC04002331F1009100
:10083000F404002311F500E00093FC0400E00093B1
:1008400004051BC00091F4041091E602011728F47E
:100850000091F40403950093F4040091F4041091C2
:10086000E602011751F40091FC040F3F31F00FEF45
:100870000093FC040FEF0093040567DE0023E1F40E
:100880000091F504013028F00091F5040A950093D9
:10089000F5040091F504002351F50091FD040023B7
:1008A00031F10091F504002311F500E00093FD04FF
:1008B00000E00093050508950091F5041091E7020A
:1008C000011728F40091F50403950093F5040091B5
:1008D000F5041091E702011751F40091FD040F3F58
:1008E00031F00FEF0093FD040FEF0093050508951D
:1008F0009A938A9380E090E08C3008E0900738F477
:1009000000E0FC01EA5FFA4F00830196F5CF0E94F8
:10091000D00502E30093E00202E30093E10202E368
:100920000093E20202E30093E30202E30093E40295
:1009300002E30093E50202E30093E60202E3009380
:10094000E702DDDD002321F400E00093FE0403C094
:100950000FEF0093FE04D9DD002321F400E00093A3
:10096000FF0403C00FEF0093FF04D5DD002321F443
:1009700000E00093000503C00FEF00930005D1DDF8
:10098000002321F400E00093010503C00FEF009362
:100990000105CDDD002321F400E00093020503C032
:1009A0000FEF00930205C9DD002321F400E000935E
:1009B000030503C00FEF00930305C5DD002321F4F9
:1009C00000E00093040503C00FEF00930405BDDDB4
:1009D000002321F400E00093050503C00FEF00930E
:1009E000050542E00091E0020E9410210093EE0410
:1009F00042E00091E1020E9410210093EF0442E0E6
:100A00000091E2020E9410210093F00442E0009164
:100A1000E3020E9410210093F10442E00091E402FD
:100A20000E9410210093F20442E00091E5020E942E
:100A300010210093F30442E00091E6020E9410218D
:100A40000093F40442E00091E7020E941021009319
:100A5000F50400E80093F60400E80093F70400E8CA
:100A60000093F80400E80093F90400E80093FA0406
:100A700000E80093FB0400E80093FC0400E8009306
:100A8000FD04899199910895102FE199FECFF89472
:100A900000E00FBB1EBBE09A78940DB3089520E0F0
:100AA0002FBBE199FECF0EBB1DBBF894E29AE19AF1
:100AB000789408958A9380E0883C30F410E0082F01
:100AC0000E944F058395F8CF899108950E94B32124
:100AD000A0E0B0E019E10EEB0E944F0580E0883005
:100AE000A0F5082F10E0000F111FF801ED54F24F90
:100AF000108102E0809F002D03950E944F05082F72
:100B000010E0000F111FF801ED54F24F118102E0C7
:100B1000809F002D0E5F0E944F05082F10E0000FF0
:100B2000111FF801ED54F24F00811181A017B10798
:100B300050F4082F10E0000F111FF801ED54F24F90
:100B400000811181D8018395CACF1091D30D05E1A1
:100B50000E944F051091D40D06E10E944F0510919F
:100B60006D0E0EE10E944F0510916E0E0FE10E9476
:100B70004F051091710E00E20E944F051091720E08
:100B800001E20E944F051091D80402E20E944F0535
:100B90001091D90403E20E944F05E4E00C94C421B3
:100BA0000E94B3210EEB0E944405093109F449C0AB
:100BB000F89400E416E00093B30D1093B40D06E62C
:100BC00011E00093B50D1093B60D06E611E0009309
:100BD000B90D1093BA0D0EE410E00093BD0D109303
:100BE000BE0D0AE015E00093B70D1093B80D0AE0B2
:100BF00015E00093BB0D1093BC0D00E010E00093D6
:100C0000BF0D1093C00D00E010E00093C10D1093D4
:100C1000C20D0CE610E00093D30D1093D40D00E943
:100C200011E000936D0E10936E0E08EF1AE2009320
:100C3000710E1093720E06E90093D804789446DF83
:100C400061C0F89480E08830A0F502E0809F002D1C
:100C500003950E944405282F30E0220F331FF9012D
:100C6000ED54F24F008302E0809F002D0E5F0E9442
:100C70004405282F30E0220F331FF901ED54F24FC5
:100C80000183082F10E0000F111FF801ED54F24FFF
:100C900000811181A017B10750F4082F10E0000F58
:100CA000111FF801ED54F24F00811181D801839595
:100CB000CACF05E10E9444050093D30D06E10E94CE
:100CC00044050093D40D0EE10E94440500936D0E7F
:100CD0000FE10E94440500936E0E00E20E9444055D
:100CE0000093710E01E20E9444050093720E02E22D
:100CF0000E9444050093D80403E20E944405009337
:100D0000D9047894E4E00C94C42103E010E000934B
:100D1000DB0D1093DC0D00E00093DE0D08950E94C2
:100D2000B1210091DD0D10912B0E011771F0009192
:100D30002B0E0093DD0D139A03B1102F012F077FA7
:100D4000202F10951870212B23B90E947A150023AB
:100D500029F00E947E150093E10D03C00FEF009370
:100D6000E10D00E00093DE0D0091DB0D1091DC0D34
:100D7000012B29F428EE32E000E00E949C1500913E
:100D8000DB0D1091DC0D013020E0120709F08FC05F
:100D90000091DE0D002309F08AC001E00093DE0D12
:100DA0000E941D1303E010E00093DB0D1093DC0D97
:100DB00029EF32E000E00E949C150E947F02402F44
:100DC00050E060E070E011E000E10E94B4150E9484
:100DD0008502402F50E060E070E011E001E10E94E8
:100DE000B4150E948B02402F50E060E070E011E0EB
:100DF00002E10E94B4150E949102402F50E060E091
:100E000070E011E003E10E94B4150E949702402FA8
:100E100050E060E070E011E004E10E94B4150E942F
:100E20009D02402F50E060E070E011E005E10E947B
:100E3000B4150E94A302402F50E060E070E011E082
:100E400006E10E94B4150E94A502402F50E060E028
:100E500070E011E007E10E94B41522E033E009E000
:100E60000E949C150E945E12402F50E060E070E0EE
:100E700011E009E10E94B41524E033E00AE00E9489
:100E80009C150E94261C402F50E060E070E011E0AD
:100E90000AE10E94B4150091E10D013041F40E9475
:100EA0001D1302E010E00093DB0D1093DC0D0091A8
:100EB000DB0D1091DC0D023020E0120709F07DC03F
:100EC0000091DE0D002309F078C001E00093DE0DF3
:100ED00026E033E000E00E949C154091FE0450E0C3
:100EE00060E070E011E000E10E94B4154091FF0461
:100EF00050E060E070E011E001E10E94B415409123
:100F0000000550E060E070E011E002E10E94B415DD
:100F10004091010550E060E070E011E003E10E94C3
:100F2000B4154091020550E060E070E011E004E18A
:100F30000E94B4154091030550E060E070E011E0BC
:100F400005E10E94B4154091040550E060E070E0B6
:100F500011E006E10E94B4154091050550E060E003
:100F600070E011E007E10E94B41522E033E009E0EF
:100F70000E949C154091EE0D50E060E070E011E0A1
:100F800009E10E94B41524E033E00AE00E949C15B8
:100F900040917D0E50E060E070E011E00AE10E94B7
:100FA000B4150091E10D013041F40E941D1303E0DE
:100FB00010E00093DB0D1093DC0D0091DB0D109120
:100FC000DC0D033020E0120709F075C00091DE0D42
:100FD000002309F070C001E00093DE0D2FE033E044
:100FE00000E00E949C158BE090E09C30C0F4082F3C
:100FF00010E0F801E75CF14F0081002339F42DE1A6
:1010000033E0092F005F0E949C1506C02FE133E0FA
:10101000092F005F0E949C158A959395E6CF009159
:10102000EE0D002331F421E233E00CE10E949C1527
:1010300005C022E033E00CE10E949C1500917D0E7A
:10104000002331F42DE133E00DE10E949C1505C031
:1010500024E033E00DE10E949C150091D50D0023A2
:1010600031F423E233E00EE10E949C1505C025E235
:1010700033E00EE10E949C150091E10D013041F436
:101080000E941D1304E010E00093DB0D1093DC0DB3
:101090000091E10D033079F40091B50D1091B60D7A
:1010A0000E940F02F801EA5FFA4F0081026000839C
:1010B00001E00093320E0091DB0D1091DC0D043045
:1010C00020E0120709F0C7C00091DE0D002309F0EF
:1010D000C2C001E00093DE0D0091EE0D002331F45B
:1010E0002DE133E000E00E949C1505C022E033E0D2
:1010F00000E00E949C1500917D0E002331F42DE14B
:1011000033E001E00E949C1505C024E033E001E0DB
:101110000E949C150091D50D002331F423E233E0A9
:1011200000E10E949C1505C025E233E000E10E9429
:101130009C1540918C0E50918D0E60E070E013E094
:1011400003E00E94B4150091810E002331F421E2E6
:1011500033E006E00E949C1505C025E233E006E07E
:101160000E949C1540918E0E50918F0E60E070E0B1
:1011700013E008E00E94B4150091820E002331F4C0
:1011800021E233E00BE00E949C1505C025E233E02C
:101190000BE00E949C154091900E5091910E60E0E2
:1011A00070E013E003E10E94B4150091830E002368
:1011B00031F421E233E006E10E949C1505C025E2EE
:1011C00033E006E10E949C154091920E5091930EDF
:1011D00060E070E013E008E10E94B4150091840E15
:1011E000002331F421E233E00BE10E949C1505C09D
:1011F00025E233E00BE10E949C150091560E00237E
:1012000031F423E233E00DE10E949C1505C025E294
:1012100033E00DE10E949C150AE010E040916A0E57
:1012200050916B0E0E941E2143E050E00E942C2141
:10123000A80160E070E014E00CE00E94B415009199
:10124000E10D013041F40E941D1305E010E0009310
:10125000DB0D1093DC0D0091DB0D1091DC0D0530E2
:1012600020E0120709F02CC10091DE0D002309F0E7
:1012700027C101E00093DE0D0091EE0D002331F453
:101280002DE133E000E00E949C1505C022E033E030
:1012900000E00E949C1500917D0E002331F42DE1A9
:1012A00033E001E00E949C1505C024E033E001E03A
:1012B0000E949C150091560E002331F423E233E086
:1012C00000E10E949C1505C025E233E000E10E9488
:1012D0009C150091390F002331F427E233E003E03D
:1012E0000E949C1505C029E233E003E00E949C1592
:1012F0000091570E002331F421E233E004E00E9414
:101300009C1505C02BE233E004E00E949C1500917F
:101310003A0F002331F427E233E005E00E949C15E8
:1013200005C029E233E005E00E949C150091580EAB
:10133000002331F421E233E006E00E949C1505C051
:101340002BE233E006E00E949C1500913B0F002346
:1013500031F427E233E007E00E949C1505C029E242
:1013600033E007E00E949C150091590E002331F4F0
:1013700021E233E008E00E949C1505C02BE233E037
:1013800008E00E949C1500913C0F002331F427E2F5
:1013900033E009E00E949C1505C029E233E009E032
:1013A0000E949C1500915A0E002331F421E233E093
:1013B0000AE00E949C1505C02BE233E00AE00E947F
:1013C0009C1500913D0F002331F427E233E00BE040
:1013D0000E949C1505C029E233E00BE00E949C1599
:1013E0000091480F002331F423E233E003E10E942F
:1013F0009C1505C025E233E003E10E949C15009195
:10140000490F002331F423E233E005E10E949C15EB
:1014100005C025E233E005E10E949C1500914A0FCA
:10142000002331F423E233E007E10E949C1505C05C
:1014300025E233E007E10E949C1500914B0F002349
:1014400031F423E233E009E10E949C1505C025E256
:1014500033E009E10E949C1500914C0F002331F408
:1014600023E233E00BE10E949C1505C025E233E046
:101470000BE10E949C1500915B0E002359F421E2C0
:1014800033E00CE00E949C152DE233E00CE10E9459
:101490009C150AC02DE233E00CE00E949C1521E26D
:1014A00033E00CE10E949C150091E10D013041F404
:1014B0000E941D1306E010E00093DB0D1093DC0D7D
:1014C0000091DB0D1091DC0D063020E0120709F0D1
:1014D0005DC00091DE0D002309F058C001E00093CB
:1014E000DE0D2FE233E000E00E949C154091FA0DE2
:1014F0005091FB0D60E070E014E000E10E94B41533
:1015000025E333E005E10E949C1527E333E007E083
:101510000E949C1540915E0E50915F0E60E070E05D
:1015200014E007E10E94B4152CE333E00CE00E94C4
:101530009C1540915C0E50915D0E60E070E014E0EF
:101540000CE10E94B4150091E10D013041F40E94BC
:101550001D130AE010E00093DB0D1093DC0D0091E9
:10156000E10D043099F40E941D1307E010E0009390
:10157000DB0D1093DC0D20E433E002E00E949C15AB
:1015800000E117E20093DF0D1093E00D0091DB0DF9
:101590001091DC0D073020E0120709F041C00091E6
:1015A000DE0D0023E9F501E00093DE0D0091E10D71
:1015B000023041F40E941D1306E010E00093DB0DA1
:1015C0001093DC0D0091E10D0330A1F40E941D1376
:1015D00000E010E000935C0E10935D0E00E010E060
:1015E00000935E0E10935F0E06E010E00093DB0D9B
:1015F0001093DC0D0091DF0D1091E00D013020E023
:10160000120771F400E010E00093DF0D1093E00D7D
:101610000E941D1306E010E00093DB0D1093DC0D1B
:101620000091DB0D1091DC0D0A3020E01207F9F477
:101630000091DE0D0023D9F401E00093DE0D0E943D
:101640001D1328E433E003E00E949C1522E533E0FB
:1016500002E10E949C150BE010E00093DB0D10935B
:10166000DC0D00E117E20093DF0D1093E00D009117
:10167000DB0D1091DC0D0B3020E0120709F051C09A
:101680000091DE0D002309F04CC001E00093DE0D57
:101690000091E10D013041F40E941D1301E010E0C2
:1016A0000093DB0D1093DC0D0091E10D043019F572
:1016B0000E941D130CE010E00093DB0D1093DC0D75
:1016C0002FE533E004E00E949C1500E117E200934F
:1016D000DF0D1093E00D00E00093E20D00E010E05C
:1016E00020E030E0E3EEFDE00083118322833383CA
:1016F00000E00093E70D0091DF0D1091E00D013047
:1017000020E0120771F400E010E00093DF0D109369
:10171000E00D0E941D1306E010E00093DB0D109316
:10172000DC0D0091DB0D1091DC0D0C3020E0120778
:1017300009F0D8C00091DE0D002309F0D3C001E00C
:101740000093DE0D4091E70D50E060E070E011E0A5
:101750000091E20D0C5E0E94B4150091E10D023083
:1017600099F40091E70D013030F00091E70D0A95F2
:101770000093E70D03C009E00093E70D00E117E2D5
:101780000093DF0D1093E00D0091E10D033099F40B
:101790000091E70D093030F40091E70D03950093B7
:1017A000E70D03C000E00093E70D00E117E20093AE
:1017B000DF0D1093E00D0091E10D043009F07CC0C5
:1017C00000E117E20093DF0D1093E00D28E633E00F
:1017D0000091E20D0C5E0E949C150091E20D0395B4
:1017E0000093E20D4AE050E060E070E0E3EEFDE0DF
:1017F00000811181228133810E9458214091E70D9F
:1018000050E060E070E0040F151F261F371FE3EE65
:10181000FDE000831183228333830091E20D0530C4
:1018200008F44AC0E3EEFDE000811181228133819A
:10183000083A4EE7140740E0240740E0340711F46B
:1018400001E001C000E0E3EEFDE0408151816281F2
:10185000738142371BE2510710E0610710E0710706
:1018600011F411E001C010E0012B002369F004E144
:1018700010E00093DB0D1093DC0D00E21EE40093FA
:10188000DF0D1093E00D18C00DE010E00093DB0DAC
:101890001093DC0D0E941D132AE633E002E00E9443
:1018A0009C1527E733E002E10E949C1500E21EE44C
:1018B0000093DF0D1093E00D0091DF0D1091E00D0E
:1018C000013020E0120771F400E010E00093DF0D1A
:1018D0001093E00D0E941D1306E010E00093DB0D55
:1018E0001093DC0D0091DB0D1091DC0D0D3020E02C
:1018F000120771F50091DE0D002351F501E0009310
:10190000DE0D48EE53E00091DF0D1091E00D0E94D6
:101910002C210F5F1F4FA80160E070E012E00BE187
:101920000E94B4150091DF0D1091E00D013020E010
:10193000120771F400E010E00093DF0D1093E00D4A
:101940000E941D1306E010E00093DB0D1093DC0DE8
:101950000091DB0D1091DC0D043120E01207A1F4A1
:101960000091DE0D002381F40E941D1305E110E0BB
:101970000093DB0D1093DC0D00E00093E80D2EE7E3
:1019800033E000E00E949C150091DB0D1091DC0D0E
:10199000053120E0120709F02EC10091DE0D002371
:1019A00009F029C101E00093DE0D0091E80D00234C
:1019B00029F42DE833E000E10E949C150091E80D28
:1019C000013029F42EE933E000E10E949C150091DA
:1019D000E80D023029F42FEA33E000E10E949C1563
:1019E0000091E80D033029F40091E80D0395009370
:1019F000E80D0091E80D043029F40091E80D0395FD
:101A00000093E80D0091E80D053029F420EC33E057
:101A100000E10E949C150091E80D063029F4009128
:101A2000E80D03950093E80D0091E80D073029F4C7
:101A30000091E80D03950093E80D0091E80D083042
:101A400029F40091E80D03950093E80D0091E80D4D
:101A5000093029F40091E80D03950093E80D0091F9
:101A6000E80D0A3029F421ED33E000E10E949C15D5
:101A70000091E80D0B3029F422EE33E000E10E94E2
:101A80009C150091E80D0C3029F423EF33E000E1C0
:101A90000E949C150091E80D0D3029F424E034E0FB
:101AA00000E10E949C150091E80D0E3029F425E11B
:101AB00034E000E10E949C150091E80D0F3029F4FC
:101AC00026E234E000E10E949C150091E10D013016
:101AD00091F400E21EE40093DF0D1093E00D0091FD
:101AE000E80D03950093E80D0091E80D003118F022
:101AF00000E00093E80D0091E10D043009F063C0AF
:101B000000E21EE40093DF0D1093E00D0091E80D5C
:101B10000E3099F400ED17E00093DF0D1093E00D07
:101B20000E941D1327E334E005E10E949C1506E1A5
:101B300010E00093DB0D1093DC0D0091E80D0F30E9
:101B400081F400E010E00093DF0D1093E00D0E949F
:101B5000D0050E941D1306E010E00093DB0D1093EA
:101B6000DC0D0091E80D083030F40EE110E0009338
:101B7000DB0D1093DC0D0091E80D0A3031F403E227
:101B800010E00093DB0D1093DC0D0091E80D0B309D
:101B900031F40DE210E00093DB0D1093DC0D0091A9
:101BA000E80D0C3031F40FE210E00093DB0D1093E0
:101BB000DC0D0091E80D0D3031F40CE310E00093E2
:101BC000DB0D1093DC0D0091DF0D1091E00D013065
:101BD00020E0120781F400E010E00093DF0D109385
:101BE000E00D0E94D0050E941D1306E010E0009356
:101BF000DB0D1093DC0D0091DB0D1091DC0D063137
:101C000020E01207F9F40091DE0D0023D9F401E081
:101C10000093DE0D0091DF0D1091E00D013020E00A
:101C2000120781F400E010E00093DF0D1093E00D47
:101C30000E9466050E941D1306E010E00093DB0D74
:101C40001093DC0D0091DB0D1091DC0D0E3120E0C6
:101C5000120709F089C00091DE0D002309F084C04D
:101C600001E00093DE0D0E941D130091E80D00239A
:101C700029F42CE334E000E00E949C150091E80D6B
:101C8000013029F42EE933E000E00E949C15009118
:101C9000E80D023029F42DE434E000E00E949C15A8
:101CA0000091E80D053029F42EE534E000E00E94B3
:101CB0009C150091E80D10E0000F111FF801ED5484
:101CC000F24F008111810093E90D1093EA0D4091CC
:101CD000E90D5091EA0D60E070E014E008E10E9427
:101CE000B4152FE634E00CE10E949C150AE010E0E8
:101CF0004091E90D5091EA0D0E941E2143E050E011
:101D00000E942C21C80144E650E08C010E942C2145
:101D1000D80104E610E0AD010E941E219C01201BA9
:101D2000310B2901AD0160E070E012E000E10E949A
:101D3000B41521E734E002E10E949C15A20160E0A5
:101D400070E012E003E10E94B41523E734E005E1FE
:101D50000E949C1508E210E00093DB0D1093DC0D4F
:101D600001E010E00E948D150091DB0D1091DC0D5B
:101D7000083220E0120709F050C10091DE0D002367
:101D800009F04BC101E00093DE0D0091E10D01303F
:101D9000A1F400E010E00093DF0D1093E00D0E942D
:101DA000D0050E941D1306E010E00093DB0D109398
:101DB000DC0D00E010E00E948D1580E090E00091C5
:101DC000E10D0230B1F400E21EE40093DF0D109348
:101DD000E00D81E090E0E091E90DF091EA0D7F9750
:101DE00040F0E9EEFDE000811181015010400083D8
:101DF00011830091E10D0330C1F400E21EE4009371
:101E0000DF0D1093E00D81E090E00091E90D10915D
:101E1000EA0D083027E0120740F4E9EEFDE000810A
:101E200011810F5F1F4F00831183082F092BF1F1E0
:101E30004091E90D5091EA0D60E070E014E008E196
:101E40000E94B4150AE010E04091E90D5091EA0DAE
:101E50000E941E2143E050E00E942C21C80144E66C
:101E600050E08C010E942C21D80104E610E0AD0165
:101E70000E941E219C01201B310B2901AD0160E055
:101E800070E012E000E10E94B41521E734E002E1C5
:101E90000E949C15A20160E070E012E003E10E9444
:101EA000B41523E734E005E10E949C150091E10D93
:101EB000043009F096C00091E80D0023D1F40091A0
:101EC000E90D1091EA0D0093B30D1093B40D0E942B
:101ED0001D1300E010E00093DF0D1093E00D04E10E
:101EE00010E00093DB0D1093DC0D00E010E00E9489
:101EF0008D150091E80D0130F1F40091E90D10917C
:101F0000EA0D0093B50D1093B60D0091E90D1091F7
:101F1000EA0D0093B90D1093BA0D0E941D1300E055
:101F200010E00093DF0D1093E00D04E110E000934A
:101F3000DB0D1093DC0D0091E80D0230F1F40091FF
:101F4000E90D1091EA0D0093B70D1093B80D0091B3
:101F5000E90D1091EA0D0093BB0D1093BC0D0E948A
:101F60001D1300E010E00093DF0D1093E00D04E17D
:101F700010E00093DB0D1093DC0D0091E80D0530AF
:101F8000B1F40091E90D1091EA0D0093BD0D10938D
:101F9000BE0D0E941D1300E010E00093DF0D1093B2
:101FA000E00D04E110E00093DB0D1093DC0D0091D7
:101FB000E80D0A30B1F40091E90D1091EA0D00939B
:101FC000D30D1093D40D0E941D1300E010E0009378
:101FD000DF0D1093E00D04E110E00093DB0D109392
:101FE000DC0D0091DF0D1091E00D013020E01207B3
:101FF000A1F400E010E00093DF0D1093E00D0E94CB
:10200000D0050E941D1306E010E00093DB0D109335
:10201000DC0D00E010E00E948D150091DB0D1091A9
:10202000DC0D033220E0120709F060C00091DE0DE4
:10203000002309F05BC001E00093DE0D0E941D1338
:1020400025E734E000E00E949C150091D30D10912B
:10205000D40D0093E90D1093EA0D4091E90D5091D4
:10206000EA0D60E070E014E008E10E94B4152FE68C
:1020700034E00CE10E949C150AE010E04091E90D6B
:102080005091EA0D0E941E2143E050E00E942C2155
:10209000C80144E650E08C010E942C21D80104E6DE
:1020A00010E0AD010E941E219C01201B310B290173
:1020B000AD0160E070E012E000E10E94B41521E79C
:1020C00034E002E10E949C15A20160E070E012E0A1
:1020D00003E10E94B41523E734E005E10E949C155A
:1020E00008E210E00093DB0D1093DC0D0091DB0D96
:1020F0001091DC0D0D3220E0120701F50091DE0D8C
:102100000023E1F401E00093DE0D0E941D1326E898
:1021100034E000E00E949C150EE210E00093DB0D1D
:102120001093DC0D0091710E1091720E0093EB0D67
:102130001093EC0D01E010E00E948D150091DB0D75
:102140001091DC0D0E3220E0120709F061C0009101
:10215000DE0D002309F05CC001E00093DE0D40912C
:10216000EB0D5091EC0D652F660F660B762F15E089
:1021700000E10E94B41522E934E006E10E949C15BA
:102180000091E10D023091F400E21EE40093DF0DB6
:102190001093E00D00E00A9368E97AE348E853E120
:1021A00022E030E00BEE1DE00E9431160091E10DBF
:1021B000033091F400E21EE40093DF0D1093E00D74
:1021C00000E00A9368E97AE348E853E122E030E06E
:1021D0000BEE1DE00E94C4160091E10D0430C1F425
:1021E00000E21EE40093DF0D1093E00D00E010E02C
:1021F0000E948D150091EB0D1091EC0D0093710E66
:102200001093720E04E110E00093DB0D1093DC0DCF
:102210000091DB0D1091DC0D0F3220E0120701F56B
:102220000091DE0D0023E1F401E00093DE0D0E9439
:102230001D1328E934E000E00E949C1500E310E043
:102240000093DB0D1093DC0D00916D0E10916E0E5E
:102250000093EB0D1093EC0D01E010E00E948D1542
:102260000091DB0D1091DC0D003320E0120709F026
:1022700061C00091DE0D002309F05CC001E0009315
:10228000DE0D4091EB0D5091EC0D652F660F660B46
:10229000762F14E000E10E94B41522E934E005E154
:1022A0000E949C150091E10D023091F400E21EE4C1
:1022B0000093DF0D1093E00D00E00A9368EB7BE0E4
:1022C0004CE251E022E030E00BEE1DE00E943116BE
:1022D0000091E10D033091F400E21EE40093DF0D64
:1022E0001093E00D00E00A9368EB7BE04CE251E0D4
:1022F00022E030E00BEE1DE00E94C4160091E10DDB
:102300000430C1F400E21EE40093DF0D1093E00DF1
:1023100000E010E00E948D150091EB0D1091EC0D86
:1023200000936D0E10936E0E04E110E00093DB0D30
:102330001093DC0D0091DB0D1091DC0D0C3320E0CF
:10234000120771F50091DE0D002351F501E00093B5
:10235000DE0D0E941D1327EA34E000E00E949C1568
:1023600021E734E002E10E949C1525EB34E004E112
:102370000E949C1527EB34E009E10E949C150DE3B7
:1023800010E00093DB0D1093DC0D0091D80410E0F9
:102390000093EB0D1093EC0D01E010E00E948D1501
:1023A0000091DB0D1091DC0D0D3320E0120709F0D8
:1023B00082C00091DE0D002309F07DC001E0009392
:1023C000DE0D0CE010E04091EB0D5091EC0D0E9401
:1023D0001E2143E050E00E944421C8014AE050E041
:1023E0008C010E944421A801652F660F660B762F91
:1023F00012E000E10E94B4154AE050E08C010E9416
:102400004421652F660F660B762F11E003E10E94D1
:10241000B4154091EB0D5091EC0D652F660F660BD6
:10242000762F13E006E10E94B4150091E10D023011
:1024300091F400E21EE40093DF0D1093E00D00E044
:102440000A936FEF70E045E050E022E030E00BEEE1
:102450001DE00E9431160091E10D033091F400E27D
:102460001EE40093DF0D1093E00D00E00A936FEF80
:1024700070E045E050E022E030E00BEE1DE00E940D
:10248000C4160091E10D0430B1F400E21EE40093A3
:10249000DF0D1093E00D00E010E00E948D1500911B
:1024A000EB0D1091EC0D0093D80404E110E00093C3
:1024B000DB0D1093DC0DE6E00C94C2210F9902C0F5
:1024C00001E0089500E00895F9DF002311F1009183
:1024D000ED0D1091BD04011760F50091ED0D039510
:1024E0000093ED0D0091ED0D1091BD04011709F55C
:1024F0000091EE0D0023E9F40FEF0093EE0D0FEFC6
:102500000093EF0D0FEF0093F00D0FEF0093F10D1F
:1025100010C00091ED0D013060F00091ED0D0A95B5
:102520000093ED0D0091ED0D002319F400E00093F0
:10253000EE0D0091EE0D0F3F59F400916100006225
:1025400000936100009162000F7D00936200089586
:1025500000916100006200936100009162000062DE
:102560000093620008958A93A9DF802F0091F20DF5
:102570008017D9F40091F30D033628F40091F30D80
:1025800003950093F30D0091F30D033601F50091CF
:10259000F20D002329F40091F30D0093F40D17C000
:1025A0000091F30D0093F50D12C00091F20D002380
:1025B00029F40091F30D0093F40D04C00091F30D84
:1025C0000093F50D8093F20D01E00093F30D8991D6
:1025D00008950091F00D0F3F59F400E00093F00DC5
:1025E000E8EFFDE0008111810F5F1F4F0083118331
:1025F000E6EFFDE0008111810F5F1F4F0083118323
:102600000091F60D1091F70D003D27E01207A0F0A4
:102610000091F80D1091F90D0093FA0D1093FB0D38
:1026200000E010E00093F80D1093F90D00E010E0C9
:102630000093F60D1093F70D08959D010DEF1DE029
:10264000F80100E010E00093250E1093260E00E044
:1026500010E00093270E1093280E0CE11EE00E17D9
:102660001F0720F000E200833196F7CFA1E2BEE021
:102670000C9100640C93D9010895DC9A00000000CD
:1026800000000000DC98089501E1002311F00A9594
:10269000FCCF08950E94B121C8018C0116950795C1
:1026A000169507952801A0E0B0E0A415B50518F42B
:1026B000EBDF1196FACFE6E00C94C2210FE00ABBE3
:1026C0000AB300630ABB009164000E7F00936400AC
:1026D000009164000D7F00936400009164000B7F03
:1026E0000093640000916400077F0093640000E39E
:1026F00015E7D0DFDD9803E00BBBBFDF08EF11E18A
:10270000C9DF03E00BBBB9DF08EF11E1C3DF03E072
:102710000BBBB3DF08EF11E1BDDF02E00BBBADDFA8
:1027200008EF11E1B7DF02E00BBBA7DF08E00BBB4E
:10273000A4DF08EF11E1AEDF00E00BBB9EDF08E095
:102740000BBB9BDF08EF11E1A5DF00E00BBB95DFC2
:102750000CE00BBB92DF00EF10E09CDF00E00BBB56
:102760008CDF01E00BBB89DF00EF10E093DF00E0BE
:102770000BBB83DF06E00BBB80DF08EF11E18ADFD4
:10278000E2E2FEE000810E7F00830895592F082EBB
:102790008091C1049091C20401978093C1049093E9
:1027A000C204892B59F4E1E2FEE000810860008355
:1027B00008EE13E00093C1041093C2048091BF049B
:1027C0009091C00401978093BF049093C004892B1B
:1027D00061F408E01091220E10271093220E0CE2F3
:1027E00011E00093BF041093C004E2E2FEE0008118
:1027F00005FF15C080911F0E9091200E01978093C8
:102800001F0E9093200E892B51F4E2E2FEE000812E
:1028100000640083E2E2FEE000810F7D0083E1E2DC
:10282000FEE0008100FF17C000E110916500102755
:102830001093650000911E0E0A9500931E0E002352
:1028400051F400916500006100936500E1E2FEE053
:1028500000810E7F0083009163000F70302F009184
:10286000BE04132F1023112309F062C00091240E1F
:102870001091BE040123002349F5E2E2FEE000814D
:1028800001FD0BC004E010911D0E011B0093230EEF
:10289000E2E2FEE0008102600083009165000F7EAD
:1028A00000936500E1E2FEE000810160008304E640
:1028B00000931E0EE2E2FEE00081006200830CEB5A
:1028C00012E000931F0E1093200E2AC0E2E2FEE0F9
:1028D000008106FF25C0E2E2FEE00081006800837F
:1028E0000091220E0271003159F404E010911D0E86
:1028F000011B0093230EE2E2FEE0008102600083F0
:10290000E2E2FEE000810F7B0083E2E2FEE0008174
:102910000062008306E910E000931F0E1093200E62
:102920000091BE041091240E102B1093240E1EC093
:102930000091240E1091BE040123002379F0E2E2FD
:10294000FEE000810F7D0083E2E2FEE000810F7B6C
:102950000083E2E2FEE000810F7700830091BE0475
:1029600000951091240E10231093240E00911D0E3B
:10297000039500931D0E0091BE04000F0093BE044A
:1029800000911D0E043031F400E000931D0E01E0B3
:102990000093BE040091FC0D0032E9F400E00093C6
:1029A000FC0DDD980BB3007F0BBBDB9ADC9A0000BB
:1029B000000000000000DC980BB3007F0BBBDC9A2A
:1029C0000000000000000000DC98E2E2FEE0008170
:1029D0000E7F00838CC00091FC0D003109F5E2E20E
:1029E000FEE0008100FD1CC0DD980BB3007F0BBB37
:1029F0000BB30C600BBBDC9A000000000000000071
:102A0000DC980BB3007F0BBBDC9A000000000000D9
:102A10000000DC98E2E2FEE000810160008367C014
:102A2000DD9A0091FC0D10E0F801E350F24F0081B7
:102A3000202F203868F00091FC0D10E0F801E350E1
:102A4000F24F008110E0F801E45FFF4F0491202F66
:102A5000E2E2FEE0008100FF15C06091270E709158
:102A6000280E4091FC0D405101E010E00E9426210B
:102A700060237123672BC9F0E2E2FEE0008103FDD1
:102A800020E213C06091250E7091260E4091FC0D3E
:102A900001E010E00E94262160237123672B29F0BA
:102AA000E2E2FEE0008103FD20E20BB3007F0BBBFE
:102AB000022F02950F701BB3102B1BBBDC9A00007A
:102AC000000000000000DC980BB3007F0BBB022F5E
:102AD0000F701BB3102B1BBBDC9A00000000000022
:102AE0000000DC980091FC0D03950093FC0D802DF7
:102AF000952F08950091220E02700895E2E2FEE003
:102B0000008101FD02C00000F9CFE2E2FEE0008199
:102B10000D7F00830091230E0895202F212B31F487
:102B2000E2E2FEE020812F7E20830895E2E2FEE0D3
:102B300020812061208308950D01402F642F70E0D3
:102B40000DEF1DE0060F171FD801F9010081502F6E
:102B50003196513038F05C93119643950081502F97
:102B60003196F7CFD00108950E94A721E02EC12E03
:102B70004A015B01082D09290A290B29B1F4FF2418
:102B80000DEF1DE00E0D1F1D280102E0C01648F0DC
:102B900000E3F201008301E0400E00E0501ECA9401
:102BA000F4CF00E3F201008359C0FF240DEF1DE0D4
:102BB0000E0D1F1DDD240C0D1D1D28010FEF400EF5
:102BC0000FEF501E320123014AE050E060E070E058
:102BD000840195010E947821405DF30140838AE0E1
:102BE00090E0A0E0B0E002E0C016C0F1AC01BD0191
:102BF000840195010E947821012B022B032BD1F037
:102C00000FEF400E0FEF501E32012301AC01BD014A
:102C1000840195010E947821080119014AE050E0E1
:102C200060E070E0800191010E947821405DF30135
:102C3000408308C00FEF400E0FEF501EF2012F012E
:102C400000E300830AE010E020E030E0AC01BD01C9
:102C50000E945821C801D901CA94C5CFE0E10C9463
:102C6000B8219A938A9308010A81223010E0310733
:102C700009F043C01001F101808191814817590783
:102C800090F5E2E2FEE0108117FF26C0F10180819D
:102C900091818A30904050F4002321F0F10160834B
:102CA000718369C0F1014083518365C0F101808166
:102CB00091810A9780839183F101808191818417AA
:102CC000950780F4002321F0F1016083718353C0E4
:102CD000F101408351834FC0F101808191810197BF
:102CE0008083918348C0002321F0F10160837183C8
:102CF00042C0F101408351833EC01001F1011081B7
:102D0000E12FF0E04E175F0768F5E2E2FEE0108188
:102D100017FF23C0F10110811A3050F4002321F075
:102D2000162FF101108327C0142FF101108323C047
:102D3000F10110811A501083F1011081E12FF0E0B0
:102D4000E417F507C0F4002321F0162FF1011083DA
:102D500012C0142FF10110830EC0F10110811A95D9
:102D6000108309C0002321F0162FF101108303C046
:102D7000142FF1011083E1E2FEE010811260108354
:102D800089919991219608959A938A9308010A81CD
:102D9000223010E0310709F044C01001F1018081B8
:102DA00091818617970798F5E2E2FEE0108117FF00
:102DB00027C0F10180819181863F1FEF910750F07C
:102DC000002321F0F1014083518369C0F101608348
:102DD000718365C0F101808191810A96808391831E
:102DE000F101808191816817790780F4002321F037
:102DF000F1014083518353C0F101608371834FC05F
:102E0000F1018081918101968083918348C00023E4
:102E100021F0F1014083518342C0F101608371834D
:102E20003EC01001F1011081E12FF0E0E617F70735
:102E300068F5E2E2FEE0108117FF23C0F101108186
:102E4000163F50F0002321F0142FF101108327C00A
:102E5000162FF101108323C0F1011081165F10833A
:102E6000F1011081E12FF0E06E177F07C0F400231D
:102E700021F0142FF101108312C0162FF1011083DD
:102E80000EC0F10110811395108309C0002321F0B9
:102E9000142FF101108303C0162FF1011083E1E21A
:102EA000FEE0108112601083899199912196089516
:102EB0002091DB04102F1223113040F020916D0E71
:102EC00030916E0E20936F0E3093700E2091DC04C3
:102ED000102F1223113040F02091710E3091720E9C
:102EE0002093730E3093740E089500E0E0916F0EFE
:102EF000F091700E31974CF0EFE6FEE020813181C9
:102F000021503040208331830FEF2091730E309198
:102F1000740E213010E0310741F420916D0E309194
:102F20006E0E2093750E3093760EE091730EF09135
:102F3000740E319744F0E3E7FEE0208131812150A7
:102F4000304020833183E091750EF091760E3197F9
:102F50004CF0E5E7FEE020813181215030402083B4
:102F600031830FEF002359F4109161001860109322
:102F70006100109162001860109362000895109132
:102F8000610018601093610010916200177F109328
:102F9000620008950E94B3210E945E1F0E945E138A
:102FA0000E9485060FEF009361000FEF009362000F
:102FB000129A139A1A9A1B9A8D988C98BF98BE9859
:102FC000BD98BC981798169815981498959A949A45
:102FD000C79AC69AC59AC49A1F9A1E9A1D9A1C9A95
:102FE00000E004BB8F988E980FEF05BB979A969AD6
:102FF00000E0003140F420E010E0F801EB5BF14F1D
:1030000020830395F6CF0E94091C00E00093550E23
:103010000E94681F78940E941D1323EC34E000E0A6
:103020000E949C152DEC34E000E10E949C1508E8FC
:1030300013E10093DF0D1093E00DE091DF0DF091AF
:10304000E00D3597D0F7009163000870802F88233A
:1030500011F40E945A050E9478040E94281B0E94C5
:103060001D130E945F1C0E94271D00E00093300E7C
:103070000E94F4010E948F060091300E033050F040
:1030800000916100006400936100009162000F7B79
:103090000093620000917E0E0F3F09F063C000E0D4
:1030A00000937E0E00E00093800E01E010E000939C
:1030B0008A0E10938B0E0091830E0093840E009164
:1030C000820E0093830E0091810E0093820E009178
:1030D000800E0093810E0091900E1091910E00933E
:1030E000920E1093930E00918E0E10918F0E0093FE
:1030F000900E1093910E00918C0E10918D0E0093F6
:103100008E0E10938F0E00918A0E10918B0E0093ED
:103110008C0E10938D0E01E010E000938C0E109336
:103120008D0E00918E0E10918F0E00936A0E1093EB
:103130006B0E00E00093560EECE5FEE0008111817D
:103140000F5F1F4F008311830BE01091820E10233D
:10315000113040F0EEE5FEE0208131812F5F3F4FDE
:10316000208331830091300E013008F490C10E9419
:103170002B0281E090E0883000E0900700F5FC0130
:10318000EF5CF14F00810130C0F000E0FC01EF5C2A
:10319000F14F0083A091D8048C01000F111FF8019A
:1031A000ED54F24F008111814091D80450E00E940B
:1031B0002C21F801E75CF14FA0830196DCCF009150
:1031C000390E013028F00091390E0A950093390E1E
:1031D00081E090E08C3000E0900710F5FC01E75CA6
:1031E000F14F0081013030F0FC01E75CF14F0081CC
:1031F0000A9500830091D80410E0AC010E941E21C2
:103200000E940F02F801EA5FFA4F0081013030F0AE
:103210000091D804FC01E85CF14F00830196DACFFD
:10322000A0E000E010E00E940F02F801EA5FFA4F10
:10323000A0830E941A02A8E9A13060F0B0E0FD016D
:10324000E95EF24F0081B0E0FD01E85EF24F0083DD
:10325000AA95F2CF01E010E00E940F02F801EA5FA8
:10326000FA4F00810093180D0091D50D013028F020
:103270000091D50D0A950093D50D0091180D0130E0
:1032800030F00091D30D1091D40D0093D50D009125
:10329000D30D1091D40DF801E85EF24F008110912A
:1032A000550E102B1093550E01E0053008F045C067
:1032B000202F30E0220F331FF901E657F14F208114
:1032C0003181232B69F0202F30E0220F331FF901C9
:1032D000E657F14F208131812F5F3F4F20833183AB
:1032E000202F30E0220F331FF901E657F14F2081E4
:1032F00031814091DF045091E00424173507D8F064
:1033000010E0F801E058F14F10812091560E212B6A
:103310002093560E20E030E0402F50E0440F551F20
:10332000FA01E657F14F2083318320E010E0F801E5
:10333000E058F14F20830395B8CF0091550E1091BE
:10334000810E102B1093810E00E00093550E00E0CB
:1033500000936C0E0091600E1091610E2091D904C3
:103360003091DA040217130748F4E0E6FEE000812A
:1033700011810F5F1F4F0083118305C0ECE6FEE053
:103380000081016000830091620E1091630E209114
:10339000D9043091DA040217130748F4E2E6FEE09C
:1033A000008111810F5F1F4F0083118305C0ECE680
:1033B000FEE00081026000830091640E1091650EB2
:1033C0002091D9043091DA040217130748F4E4E697
:1033D000FEE0008111810F5F1F4F0083118305C044
:1033E000ECE6FEE00081046000830091660E10911F
:1033F000670E2091D9043091DA040217130748F4BC
:10340000E6E6FEE0008111810F5F1F4F008311830C
:1034100005C0ECE6FEE00081086000830091680EC4
:103420001091690E2091D9043091DA040217130724
:1034300048F4E8E6FEE0008111810F5F1F4F008332
:10344000118305C0ECE6FEE000810061008300917D
:103450006C0E013058F00091610000610093610032
:10346000009162000F7E009362000AC0009161002B
:1034700000610093610000916200006100936200AE
:103480000E94A01B0091300E0A950093300E00910F
:103490003E0F0F3F71F400E800933E0F0091560E6F
:1034A0000093480F0091480F00934D0F00914D0F6E
:1034B000FFDC00913E0F002331F400E800933E0F43
:1034C00000E00093480F00913F0F0F3F59F400E8D0
:1034D00000933F0F00914D0F0093490F0091490F4A
:1034E00000934E0F00913F0F002331F400E800934A
:1034F0003F0F00E00093490F0091400F0F3FC9F4C8
:1035000000E80093400FECE6FEE0008101FD09C0F9
:1035100000914E0F00934A0F00914A0F00934F0FF6
:1035200008C000914D0F00934A0F00914A0F00937D
:103530004F0F0091400F002331F400E80093400F3B
:1035400000E000934A0F0091410F0F3F59F400E84B
:103550000093410F00914F0F00934B0F00914B0FC1
:103560000093500F0091410F002331F400E80093C5
:10357000410F00E000934B0F8FE00091420F0F3F8F
:1035800089F400E80093420F0091500F00934C0F14
:1035900000914C0F0823013028F00E94B81F0FEF54
:1035A00000935B0E0091420F002381F400E800932A
:1035B000420F00914C0F0823013028F00E94C31FD6
:1035C00000E000935B0E00E000934C0F0091430F6E
:1035D000003849F000E80093430F00E010E000934A
:1035E000600E1093610E0091440F003849F000E81E
:1035F0000093440F00E010E00093620E1093630EFE
:103600000091450F003849F000E80093450F00E0B5
:1036100010E00093640E1093650E0091460F003881
:1036200049F000E80093460F00E010E00093660EBA
:103630001093670E0091470F003849F000E800939F
:10364000470F00E010E00093680E1093690E10CD54
:1036500000E000937A0E00E000937B0E08950D9930
:1036600002C001E0089500E00895F9DF0023E1F4CD
:103670000091770E013028F00091770E0A950093A3
:10368000770E0091770E002351F50091780E0023FC
:1036900031F10091770E002311F500E00093780ED0
:1036A00000E00093790E1BC00091770E1091DD04AD
:1036B000011728F40091770E03950093770E00917F
:1036C000770E1091DD04011751F40091780E0F3F31
:1036D00031F00FEF0093780E0FEF0093790E009109
:1036E0007A0E013078F00091780E0F3F59F4009176
:1036F0006100026000936100009162000D7F009301
:10370000620005C0009162000260009362000091B7
:103710007B0E013078F00091780E0F3F59F4009144
:103720006100046000936100009162000B7F0093D0
:1037300062000895009162000460009362000895A1
:103740000E94B32107E010E00E940F02F801EA5F37
:10375000FA4F00810270B02F07E010E00E940F02C4
:10376000F801EA5FFA4F00810970A02FB13020F014
:1037700008E000937A0E8B2FA13020F008E0009330
:103780007B0E9A2F00917A0E013030F000917A0E64
:103790000A9500937A0E80E000917B0E013030F0A4
:1037A00000917B0E0A9500937B0E90E000917A0EBB
:1037B0000130A0F000E010E00E940F02F801EA5F83
:1037C000FA4F0081082B008307E010E00E940F02EF
:1037D000F801EA5FFA4F0081082B008300917B0E0D
:1037E0000130A0F000E010E00E940F02F801EA5F53
:1037F000FA4F0081092B008307E010E00E940F02BE
:10380000F801EA5FFA4F0081092B0083E4E00C9491
:10381000C42100E0053098F420E010E0F801E05801
:10382000F14F208320E030E0402F50E0440F551F3F
:10383000FA01E657F14F208331830395EBCF21E066
:1038400030E020938C0E30938D0E08950E9902C0B7
:1038500001E0089500E00895F9DF0023F9F00091F8
:103860007C0E1091DE04011748F500917C0E039543
:1038700000937C0E00917C0E1091DE040117F1F490
:1038800000917D0E0023D1F40FEF00937D0E0FEF1A
:1038900000937E0E0FEF00937F0E089500917C0E33
:1038A000013060F000917C0E0A9500937C0E00912F
:1038B0007C0E002319F400E000937D0E089528E6A5
:1038C00030E08901012F10E000939000022F09B928
:1038D00000E000939500009195000F7E0093950005
:1038E000009195000F7D0093950000919500026076
:1038F0000093950000919500046000939500529804
:1039000000919500077F0093950000E00093E70E7B
:103910000093E60E0093E50E0093E40E0093E30E91
:103920000093E20E0093A10E0093A00E00E00AB9EE
:10393000579A549A539A569A0895FA93EA935A9337
:103940004A933A932A931A930A934FB75BB70CB1F1
:10395000202FE0EAFEE00081017003950170302F16
:103960000091A10E301721F401E00093E50E11C083
:1039700000E00093E50E3093A00E0091A00E10E041
:10398000F801E256F14F20830091E40E0395009375
:10399000E40E5BBF4FBF099119912991399149916B
:1039A0005991E991F9911895FA93EA934A933A93C8
:1039B0002A931A930A933FB74BB71091E20E2091C6
:1039C000E30E1217A1F01091E30E13951F73012F50
:1039D0000093E30E509A10E0F801EE55F14F10817C
:1039E0001CB91091E60E1A951093E60E04C0559876
:1039F00010E01093E60E4BBF3FBF0991199129913A
:103A000039914991E991F9911895402F1FB7512F9C
:103A1000F8941091E20E13951F73212F1091E30E6D
:103A2000211729F411E01093E70E00E00EC030E0FA
:103A3000F901EE55F14F40832093E20E559A109113
:103A4000E60E13951093E60E01E05FBF089507E6BA
:103A500010E09801232F30E020939800202F20932E
:103A6000990020E020939D0020919D002F7E2093BF
:103A70009D0020919D002F7D20939D0020919D0011
:103A8000226020939D0020919D00246020939D0042
:103A900020919A002B7F20939A0020919D00277FF0
:103AA00020939D00899A20E02093310F2093300FBE
:103AB00020932F0F20932E0F20932D0F20932C0F48
:103AC0002093EB0E2093EA0E20E020939A002091A1
:103AD0009A00206820939A0020919A0020612093F8
:103AE0009A0020919A00286020939A0020919A00D1
:103AF000206420939A000895FA93EA935A934A9384
:103B00003A932A931A930A934FB75BB700919C009C
:103B1000202FEAEEFEE00081017003950170302F46
:103B20000091EB0E301721F401E000932F0F11C02C
:103B300000E000932F0F3093EA0E0091EA0E10E0A0
:103B4000F801E851F14F208300912E0F0395009367
:103B50002E0F5BBF4FBF099119912991399149915E
:103B60005991E991F9911895FA93EA934A933A9306
:103B70002A931A930A933FB74BB700912C0F1091D9
:103B80002D0F0117D9F000912D0F03950F73202FE2
:103B900020932D0F00919A00016000939A000091EC
:103BA0002D0F10E0F801E451F14F008100939C00CB
:103BB0000091300F0A950093300F0BC000919A00CE
:103BC0000F7D00939A0001E00093320F00E0009314
:103BD000300F4BBF3FBF09911991299139914991FC
:103BE000E991F99118952A931A930A931FB72BB765
:103BF0000091320F013041F4919805E00A95F1F7F8
:103C0000000000E00093320F2BBF1FBF09911991F4
:103C100029911895402F1FB7512FF89410912C0F10
:103C200013951F73212F10912D0F211729F411E0E7
:103C30001093310F00E019C0919905C0919A15E0D9
:103C40001A95F1F7000030E0F901E451F14F40839B
:103C500020932C0F10919A00106210939A001091EB
:103C6000300F13951093300F01E05FBF0895BA93A2
:103C7000AA939A938A93FA93EA933A922A921A927F
:103C80000A927A936A935A934A933A932A931A938D
:103C90000A93AFB7BBB70091330F03950093330F6F
:103CA00078940091330F023030F002E010E000937E
:103CB0002E0E10932F0E0E94C6138091290E909104
:103CC0002A0E01968093290E90932A0E883E03E0D7
:103CD000900721F500E010E00093290E10932A0EC2
:103CE00000912B0E039500932B0E0C33B9F400E0DA
:103CF00000932B0E00912C0E039500932C0E0C3389
:103D000069F400E000932C0E00912D0E03950093B2
:103D10002D0E083119F400E000932D0E0E94A70229
:103D20000E9464120E942C1C0E94CE1F0E94351B10
:103D30000E9475170E94B3120E94E9120091780E3A
:103D40000F3F09F085C00091FF040F3F79F4009107
:103D5000B50D1091B60D0E940F02F801EA5FFA4FFF
:103D600000810260008301E00093320E00910105A2
:103D70000F3F79F40091B90D1091BA0D0E940F0216
:103D8000F801EA5FFA4F00810460008301E00093CC
:103D9000340E009103050F3F79F40091BD0D109191
:103DA000BE0D0E940F02F801EA5FFA4F0081086021
:103DB000008301E00093360E009100050F3F79F477
:103DC0000091B70D1091B80D0E940F02F801EA5F43
:103DD000FA4F00810061008301E00093330E0091EF
:103DE00002050F3F79F40091BB0D1091BC0D0E94AC
:103DF0000F02F801EA5FFA4F00810062008301E0E0
:103E00000093350E009104050F3F79F40091BF0D2A
:103E10001091C00D0E940F02F801EA5FFA4F008175
:103E20000064008301E00093370E009105050F3F09
:103E300079F40091C10D1091C20D0E940F02F8019A
:103E4000EA5FFA4F00810068008301E00093380EBA
:103E50000E94F2010091EF0D0F3F41F400E000934A
:103E6000EF0D0091300E03950093300EE091DF0DC1
:103E7000F091E00D329740F0EFEDFDE0008111810F
:103E800001501040008311830091330F0A95009375
:103E9000330FBBBFAFBF0991199129913991499156
:103EA0005991699179910990199029903990E991E6
:103EB000F99189919991A991B99118950DE003BF54
:103EC00000E002BF0DE701BF07B7026007BF08951A
:103ED00000E00093480F00E00093490F00E00093DA
:103EE0004A0F00E000934B0F00E000934C0F00E0FE
:103EF00000934D0F00E000934E0F00E000934F0F32
:103F000000E00093500F00E800933E0F00E800939C
:103F10003F0F00E80093400F00E80093410F00E8D6
:103F20000093420F009161000160009361000091D5
:103F30006200016000936200089501B1007108956C
:103F40009F9902C001E0089500E008959E9902C083
:103F500001E0089500E008959D9902C001E00895F0
:103F600000E008959C9902C001E0089500E00895E2
:103F700000916100016000936100009162000E7F7A
:103F80000093620008950091610001600093610058
:103F9000009162000160009362000895CEDF00236B
:103FA000F9F00091340F1091E104011798F5009198
:103FB000340F03950093340F0091340F1091E104F6
:103FC000011741F50091390F002321F50FEF009300
:103FD000390F0FEF00933E0F0FEF0093430F1AC0FE
:103FE0000091340F0130B0F00091340F0A95009326
:103FF000340F0091340F002369F40091390F0F3F03
:1040000049F400E00093390F00E000933E0F00E018
:104010000093430F95DF0023F9F00091350F1091C5
:10402000E204011798F50091350F03950093350FC1
:104030000091350F1091E204011741F500913A0FFC
:10404000002321F50FEF00933A0F0FEF00933F0F7E
:104050000FEF0093440F1AC00091350F0130B0F0FC
:104060000091350F0A950093350F0091350F00230D
:1040700069F400913A0F0F3F49F400E000933A0FC2
:1040800000E000933F0F00E00093440F5FDF002348
:10409000F9F00091360F1091E304011798F50091A3
:1040A000360F03950093360F0091360F1091E304FD
:1040B000011741F500913B0F002321F50FEF00930D
:1040C0003B0F0FEF0093400F0FEF0093450F1AC007
:1040D0000091360F0130B0F00091360F0A95009331
:1040E000360F0091360F002369F400913B0F0F3F0C
:1040F00049F400E000933B0F00E00093400F00E024
:104100000093450F29DF0023F9F00091370F10913C
:10411000E404011798F50091370F03950093370FCA
:104120000091370F1091E404011741F500913C0F05
:10413000002321F50FEF00933C0F0FEF0093410F89
:104140000FEF0093460F1AC00091370F0130B0F007
:104150000091370F0A950093370F0091370F002316
:1041600069F400913C0F0F3F49F400E000933C0FCD
:1041700000E00093410F00E00093460FF3DE0023C0
:10418000F9F00091380F1091E504011798F50091AE
:10419000380F03950093380F0091380F1091E50404
:1041A000011741F500913D0F002321F50FEF00931A
:1041B0003D0F0FEF0093420F0FEF0093470F08954D
:1041C0000091380F0130B0F00091380F0A9500933C
:1041D000380F0091380F002369F400913D0F0F3F15
:1041E00049F400E000933D0F00E00093420F00E02F
:1041F0000093470F089500008895FECF0FED0DBF87
:1042000001E00EBFC0E6D1E00E94CD21002311F0F5
:104210000E94DF210E94CA170E94FB200C94FB2001
:104220000024E8E0EA9532F0001F001C0416D0F3E9
:10423000041AF8CF001F402D00950895149F102DEB
:10424000059F100D049F002D110D08954A951AF039
:10425000000F111FFBCF089500241124EFE0001F71
:10426000111F001C111C0416150610F0041A150A63
:10427000EA95AAF7001F111FA00100951095089557
:104280005195419550400895FF27552312F4F16050
:10429000F7DF112312F4F09507D00E942C21F0FDD6
:1042A00003D0F1FDEDCF08951195019510400895CB
:1042B0002224349F302D259F300D169F300D079FEF
:1042C000300D249F202D310D159F200D311D069F8F
:1042D000200D311D149F102D210D321D059F100D35
:1042E000211D321D049F002D110D221D321D089528
:1042F000002411241001E0E2EA9592F0001F111F42
:10430000221F331F001C111C221C331C041615060F
:104310002606370688F3041A150A260A370AECCF50
:10432000001F111F221F331FA001B101009510951E
:10433000209530950895AF93BF93D8013BBF079068
:104340000D9241505040D9F7BF91AF910895FA9224
:10435000EA92DA92CA92BA92AA929A928A927A923D
:104360006A925A924A92BA93AA939A938A93089518
:10437000FF84EE84DD84CC84BB84AA849984888401
:104380007F806E805D804C80BB81AA81998188810D
:10439000F0E0EC0FFD1FEF01089501E0089520E02B
:1043A00008D0E9F708953BBF27913BB702D0D9F772
:1043B00008952D9301501040202F212B089502E4E1
:1043C000402E04E4502E00E0602EF201362D6BBE2C
:1043D00007911691F201EE5FFF4F3F4F3BBFA79150
:1043E000B691F201362DEC5FFF4F3F4F3BBF479137
:1043F00057916691242F252B262B21F0FA01362F79
:10440000D2DF01C0CCDF07E0400E00E0501E601E8E
:10441000A201662D403554446040B8F20895E61973
:10442000FF080100000000000000E619FF0802007C
:10443000000000000000E619FF0803000000000073
:1044400000006B0AE6040000000603E0015044008F
:1044500000316253C4F5A697B988DBEA7D4C1F2E64
:104460004372211087B6E5D4FACB98A93E0F5C6D54
:1044700086B7E4D5427320113F0E5D6CFBCA99A844
:10448000C5F4A796013063527C4D1E2FB889DAEB34
:104490003D0C5F6EF9C89BAA84B5E6D74071221324
:1044A0007E4F1C2DBA8BD8E9C7F6A5940332615014
:1044B000BB8AD9E87F4E1D2C02336051C6F7A49504
:1044C000F8C99AAB3C0D5E6F4170231285B4E7D6F4
:1044D0007A4B1829BE8FDCEDC3F2A19007366554E4
:1044E00039085B6AFDCC9FAE80B1E2D344752617D4
:1044F000FCCD9EAF38095A6B4574271681B0E3D2C4
:10450000BF8EDDEC7B4A192806376455C2F3A091B3
:104510004776251483B2E1D0FECF9CAD3A0B5869A3
:1045200004356657C0F1A293BD8CDFEE79481B2A93
:10453000C1F0A3920534675678491A2BBC8DDEEF83
:1045400082B3E0D1467724153B0A5968FFCE9DAC73
:104550003232323232323232EEF8E8E1EAE020E84A
:10456000EDE4E8EAE0F6E8E800E4E5F4E5EAF2FB89
:104570003100CA00D000E4E5F4E5EAF2FB3200F1D4
:10458000EEEFF0EEE2EEE6E4E5EDE8E5005F00696F
:1045900000200078004400740054003D004900D120
:1045A000EAEEF02E004E00E4E5F42E00E2F1E50024
:1045B000D1E1F0EEF1203F00CDE0F1F2F0EEE9EADA
:1045C000E000EEE1EEF0F3E4EEE2E0EDE8FF00CF34
:1045D000E0F0EEEBFC203A002A00CEF8E8E1EAE059
:1045E00020E2E2EEE4E000EFE0F0EEEBFF00D0E0EE
:1045F000F1F1F2EEFFEDE8E520E4EE3A00CAE5EB7A
:10460000FCE2E8EDE0202020202020202000CCC487
:104610002D3332202020202020202020202000F2B6
:10462000EEEBF9E8EDEEECE5F0E0202020202000B4
:10463000F1F2FBEAEEEBEEE2E020D0D131202020D7
:1046400000EBE8EDE8E820F0E5E7E020202020207E
:104650002000E4EBED2EF2F0F3E1FB20CAD02E3384
:10466000202000E4EBED2EEFEEEAF0F12ECAD02E82
:1046700033202000ECE0F1F8F2E0E120F8EAE0EB92
:10468000FB20202000D1CED5D0C0CDC8D2DC202048
:10469000202020202000CED2CCC5CDC0202020203C
:1046A000202020202020005341564500CAE5EBFC85
:1046B000E2E8ED20202020202020202000D2EEEB78
:1046C000F9E8EDEEECE5F020202020202000F1F2CA
:1046D000FBEA20D0D1312020202020202020006E95
:1046E000002E004D00E4EE20EBE8EDE8E820F0E5D8
:1046F000E7E020202000E4EBE8EDE020F2F0F3E139
:10470000FB00ECD1E5EA2E00E2F0E5ECFF20EFEE55
:10471000EAF0E0F1EAE800ECE0F1F8F2E0E120F89C
:10472000EAE0EBFB006D00E8ECEF2FE4000301F49E
:1047300001E803D2322CF1F2E0EDB9310032342E2F
:1047400031302E3230313300AAC20120103232779C
:06475000010A0A0A0A0A30
:0400000300000000F9
:00000001FF
